:100000000C9477000C9475030C9405030C949101E7
:100010000C9437020C9475030C9475030C947503BF
:100020000C9475030C9475030C9475030C94750370
:100030000C9475030C9475030C9475030C94750360
:100040000C9475030C9475030C9475030C94750350
:100050000C9475030C9475030C9475030C94750340
:100060000C9414030C9407020C9475030C94750300
:100070000C9475030C9467020C9475030C9475032F
:100080000C9475030C9475030C9475030C94750310
:100090000C9475030C9475030C9475030C94750300
:1000A0000C9475030C9475030C9475030C947503F0
:1000B0000C9475030C9475030C9475030C947503E0
:1000C0000C9475030C9475030C9475030C947503D0
:1000D0000C9475030C9475030C9475030C947503C0
:1000E0000C9475030C9475034000400C800011249F
:1000F0001FBECFEFCDBFDFE7DEBFE8EEF0E040E0B0
:1001000019C0B791A79137912791079107FD0EC0AC
:1001100097918791EF01F92FE82F0BBF07900D9270
:10012000A217B307D9F7FE011BBE04C01D92A21788
:10013000B307E1F7ED3EF40721F70E943C030C946E
:06014000A100F894FFCFBE
:100146000F931F93CF93DF930E94D00140E054E0BA
:100156006FEFFA01608320E234E0F901608380E406
:1001660094E07FE3FC017083C0E6D4E06883A0E8F6
:10017600B4E06C9300EA14E0F8016083FA0114829B
:10018600F9011482FC0114821C8214961C921497A5
:10019600F8011482FA01108A118A128A138A148AC3
:1001A600158A168A178AF901108A118A128A138A01
:1001B600148A158A168A178AFC01108A118A61E048
:1001C600628B138A148A158A168A178A188A198ADC
:1001D6001A8A1B8A1C8A1D8A1E8A1F8A50961C929E
:1001E600509751961C92519752961C92529753963D
:1001F6001C92539754961C92549755961C92559759
:1002060056961C92569757961C925797F801108A45
:10021600118A128A138A148A158A168A178AFA018B
:100226001386168615861486F90113861686158694
:100236001486FC0113861686158614861B861E8672
:100246001D861C861B961C921B971E961C921E973B
:100256001D961C921D971C961C92F80113861686F5
:1002660015861486E0EEF5E011861182108214825E
:10027600168217821086158212821382128687E7EB
:1002860093E08093024090930340DF91CF911F91BA
:040296000F91089527
:10029A00E0E0F2E086E0808B84E2818B128A138AA6
:1002AA00148A158A168A178A108E118E81E0808325
:1002BA00118284A710A211A212A213A214A215A23B
:1002CA0016A217A210A611A612A613A616A617A65C
:1002DA0082E080AB11AA12AA13AA15A613AE14AE15
:1002EA0015AE16AE17AE109240021092410210924D
:1002FA004202109243021092440210924502109256
:10030A0046021092490210924A0215AA16AA17AA80
:08031A0010AE11AE80E0089561
:100322001F920F920FB60F9211240BB60F922F93BA
:100332003F934F935F936F937F938F939F93AF936B
:10034200BF93EF93FF938091430180FF07C0E09139
:100352000A40F0910B40309709F0099580914301D2
:1003620081FF07C0E0910840F0910940309709F001
:10037200099583E080934301FF91EF91BF91AF9183
:100382009F918F917F916F915F914F913F912F91AB
:0E0392000F900BBE0F900FBE0F901F9018958E
:1003A000E0E9F4E0808188608193E83984E0F8072F
:1003B000C9F7E0EBF4E0808188608193E83B84E05A
:1003C000F807C9F7E0E1F4E0808188608193E831C3
:1003D00084E0F807C9F7E0E3F4E080818860819366
:1003E000E83384E0F807C9F7E0E5F4E0808188604D
:1003F0008193E83584E0F807C9F7E0E7F4E080810D
:0E04000088608193E83784E0F807C9F7089513
:10040E001F920F920FB60F9211240BB60F922F93CD
:10041E003F934F935F936F937F938F939F93AF937E
:10042E00BF93EF93FF93E0910440F0910540309716
:10043E0009F0099582E080930D06FF91EF91BF912F
:10044E00AF919F918F917F916F915F914F913F915E
:10045E002F910F900BBE0F900FBE0F901F901895FF
:10046E001F920F920FB60F9211240BB60F922F936D
:10047E003F934F935F936F937F938F939F93AF931E
:10048E00BF93EF93FF93E0910640F09107403097B2
:10049E0009F0099581E080935301FF91EF91BF918F
:1004AE00AF919F918F917F916F915F914F913F91FE
:1004BE002F910F900BBE0F900FBE0F901F9018959F
:1004CE001F920F920FB60F9211240BB60F922F930D
:1004DE003F934F935F936F937F938F939F93AF93BE
:1004EE00BF93EF93FF935A9B05C0E0910240F091AA
:1004FE00034009958FEF8BB9FF91EF91BF91AF91AB
:10050E009F918F917F916F915F914F913F912F911D
:0E051E000F900BBE0F900FBE0F901F90189500
:10052C0040E068ED88E790E00E946B0340E068EDE6
:10053C008CE790E00E946B0340E168ED81E690E06F
:10054C000E946B0340E068ED80E690E00E946B0334
:10055C0040E068ED83E690E00E946B0344E268EDB6
:10056C0088E690E00E946B0340E068ED82E690E044
:08057C000E946B0380E008956A
:10058400E0E4F1E081818111FDCFE0E4F1E0148643
:100594001586108611868FEF9FE7828793871782CF
:1005A40015821282108A158A128A81E8808380E07B
:0205B4000895A8
:1005B6000E94A3000E9430030E944F030E9447033B
:1005C6000E9496020E944D010E94F0020E94C20201
:0A05D6000E9423030E9457030895BA
:1005E000E0E0F6E01182128213821482168681E026
:1005F00083871486108611868583148A158A128A49
:0A060000138A81E8808380E00895EA
:10060A001F920F920FB60F9211248F9381E080935D
:0E061A008A008F910F900FBE0F901F901895C1
:100628001F920F920FB60F9211248F9381E080933F
:0E0638000D068F910F900FBE0F901F9018951A
:1006460040E068ED80E191E00E946B03E0E1F1E0BB
:0A06560012821382789480E0089568
:1006600040E068ED80E890E00E946B03E0E8F0E095
:080670001186108680E0089558
:100678000E94DB0282E4809308068FE593E00E94E3
:0606880066038895FECF19
:10068E0043E068ED80E590E00E946B0380E0089502
:10069E0040E068ED80E091E00E946B0380E00895F9
:1006AE00E0EAF0E0148281E08083128280E0089517
:0E06BE000E94700380930040909301400895C5
:0A06CC0080930240909303400895CC
:0A06D6001BBEFC0164BF40830895C1
:0A06E0008091100690911106089514
:0406EA000C9400006C
:0206EE0008956D
:02000004008278
:090000000000000000C000000037
:00000001FF
